:100000000C9462000C948A000C948A000C948A0070
:100010000C948A000C948A000C948A000C948A0038
:100020000C948A000C948A000C948A000C948A0028
:100030000C948A000C948A000C948A000C948A0018
:100040000C940F030C948A000C944F080C9429080C
:100050000C948A000C948A000C948A000C948A00F8
:100060000C9498030C948A000000000024002700E0
:100070002A0000000000250028002B0000000000DE
:1000800023002600290004040404040404040202DA
:100090000202020203030303030301020408102007
:1000A0004080010204081020010204081020000012
:1000B0000008000201000003040700000000000027
:1000C0000000B60B11241FBECFEFD8E0DEBFCDBFBE
:1000D00023E0ACE9B1E001C01D92A233B207E1F721
:1000E00011E0A0E0B1E0EEEBF0E202C005900D926D
:1000F000AC39B107D9F710E0C2E6D0E004C02197CF
:10010000FE010E945B0EC136D107C9F70E9481082B
:100110000C945D100C9400003FB7F894809151024C
:1001200090915202A0915302B091540226B5A89B1F
:1001300005C02F3F19F00196A11DB11D3FBFBA2F79
:10014000A92F982F8827820F911DA11DB11DBC01D9
:10015000CD0142E0660F771F881F991F4A95D1F79E
:100160000895833081F028F4813099F08230A1F035
:1001700008958730A9F08830B9F08430D1F48091A7
:1001800080008F7D03C0809180008F7780938000F6
:10019000089584B58F7702C084B58F7D84BD08959E
:1001A0008091B0008F7703C08091B0008F7D8093E5
:1001B000B0000895CF93DF93282F30E0F901E25586
:1001C000FF4F8491F901E656FF4FD491F901EA57A8
:1001D000FF4FC491CC2391F081110E94B100EC2F0C
:1001E000F0E0EE0FFF1FE458FF4FA591B491EC91A2
:1001F000ED2381E090E021F480E002C080E090E017
:10020000DF91CF9108951F93CF93DF93282F30E094
:10021000F901E255FF4F8491F901E656FF4FD49161
:10022000F901EA57FF4FC491CC23C1F0162F811179
:100230000E94B100EC2FF0E0EE0FFF1FEE58FF4FD1
:10024000A591B4919FB7F894111104C08C91D095E9
:10025000D82302C0EC91DE2BDC939FBFDF91CF91BE
:100260001F910895CF93DF9390E0FC01E656FF4F76
:100270002491FC01EA57FF4F8491882361F190E0BB
:10028000880F991FFC01E859FF4FC591D491FC01DB
:10029000EE58FF4FA591B491611109C09FB7F89432
:1002A0008881209582238883EC912E230BC06230B5
:1002B00061F49FB7F8948881322F30958323888327
:1002C000EC912E2B2C939FBF06C08FB7F894E8813A
:1002D0002E2B28838FBFDF91CF9108950895089525
:1002E0000895E0914D0280914C02E81730F4F0E05F
:1002F000E45DFD4F808190E008958FEF9FEF0895BA
:1003000090914D0280914C02981750F4E92FF0E043
:10031000E45DFD4F208130E09F5F90934D0202C06D
:100320002FEF3FEFC901089580914C0290E020919A
:100330004D02821B9109089585ED8093BC00809148
:10034000BC0084FDFCCF1092E50108954091BF01EF
:10035000262F30E0240F311D21323105DCF42091AD
:10036000E5012430C9F4FC0180E090E0861758F4E0
:100370003091BF012191DC01A356BE4FA30FB11DE7
:100380002C930196F3CF8091BF01680F6093BF015A
:1003900080E0089581E0089582E00895CF92DF9291
:1003A000EF92FF920F931F93CF93DF937C01CB01CA
:1003B0008A0120912B02222389F0EB016B01C40EEC
:1003C000D51ECC15DD0569F06991D701ED91FC9141
:1003D0000190F081E02DC7010995F3CF642F0E94B1
:1003E000A601C801DF91CF911F910F91FF90EF906F
:1003F000DF90CF900895CF93DF931F92CDB7DEB7F4
:10040000698320912B022223D1F020914E022032C9
:1004100040F021E030E0FC013383228380E090E073
:1004200015C080914F02E82FF0E0E55FFD4F998104
:1004300090838F5F80934F0280934E0205C061E0EE
:10044000CE0101960E94A60181E090E00F90DF911D
:10045000CF910895089580E090E00895AF92BF9203
:10046000DF92EF92FF920F931F93CF93DF93EC01F4
:100470007B018B015C0182E0A80EB11CF801D190D8
:100480008F01CE010E94460DD81621F06D2DCE01B0
:100490000E944E0D2196CA15DB0581F7C701DF9139
:1004A000CF911F910F91FF90EF90DF90BF90AF9091
:1004B00008950C94460D0F931F93CF93DF930FE590
:1004C00012E0C0E0D0E0CE010E94460DF801819319
:1004D0008F012196C430D105B1F780911503909119
:1004E00016030E94590290E090935E0280935D0291
:1004F000DF91CF911F910F9108950E94A40760E0B2
:1005000080E00E9475076AE471E087E193E00E9451
:10051000140861E080E00E9475076BE571E087E1F7
:1005200093E00C9414080F931F93CF93DF938C01E7
:10053000FC01C285D385209731F0CE010E94930241
:10054000CE010E94F90EF80182819381DF91CF9153
:100550001F910F910C94F90E0E9448100F931F9356
:10056000CF93DF93EC0188819981009729F02A814C
:100570003B812617370788F48B016F5F7F4F0E94FE
:10058000820F009761F0998388831B830A832C81F3
:100590003D81232B11F4FC01108281E001C080E039
:1005A000DF91CF911F910F9108958F929F92AF92FB
:1005B000BF92CF92DF92EF92FF926B017C010E947B
:1005C0008C004B015C01C114D104E104F104F1F091
:1005D0000E948C00DC01CB0188199909AA09BB098A
:1005E000883E9340A105B10570F321E0C21AD108FD
:1005F000E108F10888EE880E83E0981EA11CB11C6A
:10060000C114D104E104F10419F7DDCFFF90EF909C
:10061000DF90CF90BF90AF909F908F9008951F92E2
:100620000F920FB60F9211242F933F938F939F93A6
:10063000AF93BF938091550290915602A0915702BB
:10064000B09158023091500223E0230F2D3720F44F
:100650000196A11DB11D05C026E8230F0296A11D1C
:10066000B11D209350028093550290935602A0939F
:100670005702B09358028091510290915202A0917A
:100680005302B09154020196A11DB11D80935102F5
:1006900090935202A0935302B0935402BF91AF9132
:1006A0009F918F913F912F910F900FBE0F901F90B0
:1006B0001895EF92FF920F931F93CF93DF93EC0166
:1006C000198218821B821A821D821C828617970744
:1006D00041F1FB01008111810115110511F1E48047
:1006E000F580B7010E94AE022881398181110DC0C9
:1006F0002115310519F0C9010E94F90E19821882DD
:100700001D821C821B821A820CC0FD82EC82B80101
:10071000C901DF91CF911F910F91FF90EF900C9441
:100720005610DF91CF911F910F91FF90EF90089598
:100730001F920F920FB60F9211242F933F934F9356
:100740005F936F937F938F939F93AF93BF93EF9339
:10075000FF938091B900887F803609F49CC068F5CA
:10076000883209F45BC090F4803109F454C038F445
:10077000882309F4F6C0883009F44DC0F6C08831EA
:1007800009F44CC0803209F45DC0EFC0803409F434
:1007900068C048F4803309F455C0883309F0E5C0D7
:1007A0008093E401D8C0803509F44FC0883509F43E
:1007B0005DC0883409F0D9C0D6C0883909F4C7C0F3
:1007C000A8F4883709F467C038F4883609F463C0A0
:1007D000803709F460C0C9C0883809F4B8C08039CE
:1007E00009F45FC0803809F0C0C05BC0803B09F4E9
:1007F00086C038F4803A09F466C0883A09F47FC0AC
:10080000B4C0803C09F4A7C0883C09F4A4C0883B6C
:1008100009F48AC0AAC080910A0210C0909109020E
:1008200080910802981770F5E091090281E08E0F1F
:1008300080930902F0E0E851FE4F80818093BB0075
:1008400085EC86C08093E4018EC0E091090281E0CE
:100850008E0F809309028091BB00F0E0E851FE4FBB
:10086000808390910902809108026EC0E091090294
:1008700081E08E0F809309028091BB00F0E0E85187
:10088000FE4F80838091E70181116DC081E08093EC
:10089000E60184EA61C083E08093E5011092E30100
:1008A000CFCF8091E301803208F051C0E091E301A5
:1008B00081E08E0F8093E3018091BB00F0E0ED5367
:1008C000FE4F8083BDCF85EC8093BC001092E50184
:1008D0008091E301803230F4E091E301F0E0ED53E8
:1008E000FE4F10826091E30170E0E091C101F09150
:1008F000C20183EC91E009951092E30136C084E0D7
:100900008093E5011092C0011092BF01E091BD01FA
:10091000F091BE0109958091BF01811105C081E070
:100920008093BF0110929D01E091C00181E08E0F84
:100930008093C001F0E0E356FE4F80818093BB00BE
:100940009091C0018091BF01981708F479CF85E894
:100950008093BC000AC085EC8093BC001092E50136
:1009600004C01092E4010E949C01FF91EF91BF919D
:10097000AF919F918F917F916F915F914F913F9137
:100980002F910F900FBE0F901F901895CF93FC01E1
:10099000C48121E020932B02C0939C0110924F024E
:1009A00010924E028385682B85E093E00E94FB0144
:1009B00090914E02913208F045C08091E50181117D
:1009C000FCCF82E08093E50181E08093E7018FEF27
:1009D0008093E4011092090290930802ABE0B2E028
:1009E000E8EEF1E080E0981721F02D9121938F5FE0
:1009F000FACF10920A0280910A02CC0FC82BC09342
:100A00000A028091E601813061F41092E601809142
:100A10000A028093BB008091BC0083FDF8CF85EC77
:100A200001C085EE8093BC008091E5018230E1F346
:100A30008091E4018F3F31F08091E401803211F028
:100A40008091E40110924F0210924E0210922B02FC
:100A5000CF9108950F931F93CF938C01C62F0E94BF
:100A6000C6046C2F6460C8010E94C6046C2F6B7FA3
:100A7000C8010E94C60483EC90E00197F1F7CF9182
:100A80001F910F9108950F931F93CF93DF938C01C4
:100A9000C62FD42F607F642B0E942A0580E1C89F57
:100AA000B00111246D2BC801DF91CF911F910F91DF
:100AB0000C942A0541E00E94430581E090E00895EE
:100AC0000F931F93CF93DF9310924D0210924C021D
:100AD00010924F0210924E021092E50181E0809335
:100AE000E7011092E60161E082E10E94030161E00A
:100AF00083E10E9403018091B9008E7F8093B90049
:100B00008091B9008D7F8093B90088E48093B8000C
:100B100085E48093BC008EE691E09093BE018093C3
:100B2000BD018FE691E09093C2018093C1011092C4
:100B30001C03809121030E94AF0782E00E94AF074F
:100B400088E08093220360E087E193E00E94C6047E
:100B500040E060E487E193E00E944305C0E0D1E01B
:100B600008E011E0699187E193E00E945A050C17B3
:100B70001D07C1F7DF91CF911F910F910C947D025A
:100B8000CF92DF92EF92FF920F931F93CF93DF9359
:100B90006C017A018B01C0E0D0E0CE15DF0581F059
:100BA000D8016D918D01D601ED91FC910190F081FC
:100BB000E02DC6010995892B11F02196EECF7E011B
:100BC000C701DF91CF911F910F91FF90EF90DF90C0
:100BD000CF900895FC01538D448D252F30E0842F54
:100BE00090E0821B930B541710F0CF960895019755
:100BF0000895FC01918D828D981761F0828DDF013F
:100C0000A80FB11D5D968C91928D9F5F9F73928FFF
:100C100090E008958FEF9FEF0895FC01918D828DF4
:100C2000981731F0828DE80FF11D858D90E00895C1
:100C30008FEF9FEF0895FC01918D228D892F90E019
:100C4000805C9F4F821B91098F7399270895FC0147
:100C5000848DDF01A80FB11DA35ABF4F2C91848D45
:100C600090E001968F739927848FA689B7892C937A
:100C7000A089B1898C91837080648C93938D848DCD
:100C8000981306C00288F389E02D80818F7D8083D0
:100C90000895EF92FF920F931F93CF93DF93EC0190
:100CA00081E0888F9B8D8C8D981305C0E889F98928
:100CB000808185FD26C0F62E0B8D10E00F5F1F4F43
:100CC0000F731127E02E8C8DE8120CC00FB607FCB5
:100CD000FACFE889F989808185FFF5CFCE010E949E
:100CE0002706F1CF8B8DFE01E80FF11DE35AFF4F70
:100CF000F0829FB7F8940B8FEA89FB89808180622C
:100D00000AC09FB7F894EE89FF896083E889F98962
:100D100080818370806480839FBF81E090E0DF9159
:100D2000CF911F910F91FF90EF900895CF93DF9394
:100D3000EC01888D8823C9F0EA89FB89808185FDD3
:100D400005C0A889B9898C9186FD0FC00FB607FC34
:100D5000F5CF808185FFF2CFA889B9898C9185FF75
:100D6000EDCFCE010E942706E7CFDF91CF91089506
:100D700088E692E00E941B0621E0892B09F420E01E
:100D8000822F089580E090E0892B29F00E94B80618
:100D900081110C9400000895CF93DF93EC01FC01C6
:100DA00061937193CF01BA010E9459031986188685
:100DB0001B861A86DF91CF910895CF92DF92EF9232
:100DC000FF920F931F93CF93DF9300D000D000D0FA
:100DD000CDB7DEB78C016B01BA01FC01828593852A
:100DE000892B71F0CE0101960E945903AE014F5F2D
:100DF0005F4FB601F801828593850E94DD061AC017
:100E0000CE0101960E9459038CE090E00E94610E91
:100E10007C01FC01C192D192CF01BE016F5F7F4F77
:100E20000E945903F7011187008713861286F80183
:100E3000F386E28689819A810E94F90E26960FB682
:100E4000F894DEBF0FBECDBFDF91CF911F910F9100
:100E5000FF90EF90DF90CF900895CF92DF92EF92C6
:100E6000FF920F931F93CF93DF9300D000D000D059
:100E7000CDB7DEB78C016B01BA01FC018081918195
:100E8000892B71F0CE0101960E945903AE014F5F8C
:100E90005F4FB601F801808191810E94DD0612C08A
:100EA000CE0101960E9459038CE090E00E94610EF1
:100EB0007C01AE014F5F5F4FB6010E94CC06F80186
:100EC000F182E08289819A810E94F90E26960FB6FE
:100ED000F894DEBF0FBECDBFDF91CF911F910F9170
:100EE000FF90EF90DF90CF900895CF93DF93CDB731
:100EF000DEB728970FB6F894DEBF0FBECDBF98E0DF
:100F0000E0E1F1E0DE01119601900D929A95E1F792
:100F100090911F03961710F46FEF690FFE01319641
:100F2000E60FF11DE60FF11D6081680F606840E07B
:100F300087E193E028960FB6F894DEBF0FBECDBFD1
:100F4000DF91CF910C94430540E061E087E193E0AD
:100F50000E9443058BE39FE10197F1F70895CF933A
:100F6000DF93823028F090911C03986090931C03CB
:100F700080931F0362E370E080E090E00E94D5025E
:100F80006091220387E193E00E94C60468EE73E05B
:100F900080E090E00E94D50260E387E193E00E9448
:100FA0002A05CBE4D6E4CE010197F1F760E387E1AF
:100FB00093E00E942A052197F1F760E387E193E02F
:100FC0000E942A0583E592E00197F1F760E287E14C
:100FD00093E00E942A0560911C03606240E087E173
:100FE00093E00E94430584E080931D0340E06CE0A1
:100FF00087E193E00E9443050E94A40782E080936A
:101000001E0340E066E087E193E00E94430540E074
:1010100062E087E193E00E9443058BE39FE1019743
:10102000F1F7DF91CF9108956115710579F0FB011A
:1010300001900020E9F73197AF01461B570BDC0107
:10104000ED91FC910280F381E02D099480E090E025
:1010500008951F920F920FB60F9211242F933F9372
:101060004F935F936F937F938F939F93AF93BF93B0
:10107000EF93FF9388E692E00E942706FF91EF919D
:10108000BF91AF919F918F917F916F915F914F91A0
:101090003F912F910F900FBE0F901F9018951F92A8
:1010A0000F920FB60F9211242F938F939F93EF936C
:1010B000FF93E0917802F09179028081E0917E02C5
:1010C000F0917F0282FD12C09081809181028F5F3A
:1010D0008F7320918202821751F0E0918102F0E03B
:1010E000E859FD4F958F8093810201C08081FF9167
:1010F000EF919F918F912F910F900FBE0F901F90A6
:101100001895CF93DF93CDB7DEB7A5970FB6F894B8
:10111000DEBF0FBECDBF789484B5826084BD84B538
:10112000816084BD85B5826085BD85B5816085BDE2
:1011300080916E00816080936E001092810080919A
:101140008100826080938100809181008160809322
:101150008100809180008160809380008091B10047
:1011600084608093B1008091B00081608093B00072
:1011700080917A00846080937A0080917A00826006
:1011800080937A0080917A00816080937A008091C8
:101190007A00806880937A001092C100E091780212
:1011A000F091790282E08083E0917402F0917502FF
:1011B0001082E0917602F09177028FEC808310929A
:1011C0008002E0917C02F0917D0286E08083E091D4
:1011D0007A02F0917B02808180618083E0917A02C3
:1011E000F0917B02808188608083E0917A02F091A7
:1011F0007B02808180688083E0917A02F0917B029B
:1012000080818F7D808362E082E00E94320162E013
:1012100085E00E94320162E083E00E94320162E0D8
:1012200084E00E94320161E08BE00E94320160E0C4
:101230008BE00E9403010E945B020E9460051BA2DA
:101240001AA21CA21A8219821C821B821E821D8273
:101250006EE070E0CE0101960E94AE0229813A81D3
:1012600081110DC02115310519F0C9010E94F90E37
:101270001A8219821E821D821C821B8209C08EE086
:1012800090E09E838D8361E671E0C9010E94561053
:101290006091130370911403AE014F5F5F4FCE0155
:1012A00082960E942D0789819A810E94F90E0AA1D7
:1012B0001BA10115110531F0C8010E949302C8015C
:1012C0000E94F90E8FB7F8948090550290905602C4
:1012D000A0905702B09058028FBF82E00E94DA00BF
:1012E000892BF9F460E771E088E692E00E94140827
:1012F00065E871E088E692E00E941408E12CF12C88
:1013000060E0C7010E944E0D2FEFE21AF20AE114CD
:1013100034E0F306A9F70E94600561E082E00E94D4
:10132000030185E00E94DA00892B99F083E00E9496
:10133000DA00892B09F4BDC184E00E94DA00892B10
:1013400009F4E2C182E00E94DA00892B09F007C2A9
:1013500023C08091080190910901892BE9F0E09068
:101360001103F0901203C7010E94590261E081113C
:1013700060E060936702C7010E944E0D61E085E066
:101380000E94030180916702811102C00E947D02C8
:10139000109209011092080180916702882369F078
:1013A0000E94A40760E080E00E94750768E871E091
:1013B00087E193E00E94140879C1809163029091C3
:1013C0006402A0916502B0916602A5019401281BF8
:1013D000390B4A0B5B0BDA01C901843F9140A1052F
:1013E000B10508F422C18092630290926402A09237
:1013F0006502B092660240E440937C0080917A00DE
:10140000806480937A0080917A0086FDFCCF6091A1
:1014100078008091790070E0782B072E000C880B03
:10142000990B0E94290C29E030E347E95BE30E9415
:10143000880C69837A838B839C83CE0101966C012F
:10144000E12CF12CF60111916F01C7010E94460DAC
:10145000181721F0612FC7010E944E0DFFEFEF1A00
:10146000FF0A24E0E216F10469F78BE00E94DA003B
:1014700061E0892B09F060E08BE00E940301C090DD
:101480005F02D0906002E0906102F090620260E042
:1014900089E00E947507A7019601C701B6010E9465
:1014A000340E882319F06EE871E01AC02601370166
:1014B000E89477F82FEF3FEF4FE75FE7C301B20102
:1014C0000E94340E811111C02FEF3FEF4FE75FE70D
:1014D000C301B2010E94220C18163CF462E971E0CB
:1014E00087E193E00E941408A0C02FEF3FEF4FE781
:1014F0005FE4C701B6010E942F0E18161CF466E9BE
:1015000071E0EECF2FEF3FEF4FE75FECC701B60181
:101510000E94220C87FDF3CF20E030E0A901C70133
:10152000B6010E94220C87FF0AC041E06DE287E10C
:1015300093E00E944305F7FAF094F7F8F0942AE05C
:1015400037ED43EA5BE3C701B6010E94940D6B01DE
:101550007C010E94000E2B013C010E94270C9B0184
:10156000AC01C701B6010E94930D6B017C0119A269
:101570001E0131E2230E311C2DA2032DC301B20145
:101580002AE030E040E050E00E94390E29013A01A3
:10159000605DF10162931F01232B242B252B71F732
:1015A000BF0187E193E00E94140841E06EE287E109
:1015B00093E00E94430513E01150B9F120E030E0C0
:1015C00040E251E4C701B6010E94880C6B017C0126
:1015D0000E94000E9B0140E050E019A22DA0302E89
:1015E0002B013A01CA01B9012AE030E040E050E0A5
:1015F0000E94390E605DF10162931F0121153105D2
:101600004105510579F7BF0187E193E00E94140875
:10161000B201C3010E94270C9B01AC01C701B601B6
:101620000E94930D6B017C01C7CFC0905D02D090EA
:101630005E0215E0E12CF12C61E0812FEC14FD0439
:1016400044F40E94750760E087E193E00E945A0528
:1016500008C00E9475076AE971E087E193E00E9483
:101660001408FFEFEF1AFF0A1F5F1D3029F7809162
:10167000590290915A02A0915B02B0915C02A501BF
:101680009401281B390B4A0B5B0BDA01C901883B1B
:101690009B40A105B10540F08092590290925A02F8
:1016A000A0925B02B0925C020E945B020E94C206A2
:1016B00009CE8091080190910901039709F46CCE3D
:1016C00080911103909112030E945902811164CEFE
:1016D000E0901503F0901603C7010E94590290E0B4
:1016E0000196883091056CF048E050E05A834983B8
:1016F000BE016F5F7F4FC7010E942E0283E090E022
:1017000030C09A838983F4CF8091080190910901B8
:10171000029709F441CE80911103909112030E9427
:101720005902811139CEE0901503F0901603C701DC
:101730000E94590290E0019778F41A821982BE0142
:101740006F5F7F4FC7010E942E02E2E0F0E0F0934E
:101750000901E093080120CE9A838983F0CF84E0C9
:1017600090E0909309018093080116CEE8E6F2E03C
:101770001382128288EE93E0A0E0B0E08483958328
:10178000A683B7832CE131E03183208325EC30E060
:101790003587248724EC30E03787268720EC30E03B
:1017A000318B208B21EC30E0338B228B22EC30E02C
:1017B000358B248B26EC30E0378B268B118E128EE6
:1017C000138E148EE3E2F3E021E020832381348141
:1017D00032832183148213822781308536832583C7
:1017E0001086178212861186E5E0F3E013821282DA
:1017F00084839583A683B7838EE291E0918380836F
:10180000E7E1F3E01382128280E491E09183808328
:1018100087E2848380E1818782E08287138684E087
:1018200090E0909316038093150386E090E09093E8
:101830001403809313038CE090E090931203809341
:10184000110308950E94640C08F481E00895E8945F
:1018500009C097FB3EF490958095709561957F4FF8
:101860008F4F9F4F9923A9F0F92F96E9BB279395A6
:10187000F695879577956795B795F111F8CFFAF4B6
:10188000BB0F11F460FF1BC06F5F7F4F8F4F9F4FE7
:1018900016C0882311F096E911C0772321F09EE845
:1018A000872F762F05C0662371F096E8862F70E0AB
:1018B00060E02AF09A95660F771F881FDAF7880F85
:1018C0009695879597F90895990F0008550FAA0BDB
:1018D000E0E8FEEF16161706E807F907C0F0121643
:1018E0001306E407F50798F0621B730B840B950B46
:1018F00039F40A2661F0232B242B252B21F408959B
:101900000A2609F4A140A6958FEF811D811D089537
:101910000E949B0C0C940C0D0E94FE0C38F00E944F
:10192000050D20F0952311F00C94F50C0C94FB0C94
:1019300011240C94400D0E941D0D70F3959FC1F36E
:10194000950F50E0551F629FF001729FBB27F00D6D
:10195000B11D639FAA27F00DB11DAA1F649F6627C2
:10196000B00DA11D661F829F2227B00DA11D621F11
:10197000739FB00DA11D621F839FA00D611D221FCB
:10198000749F3327A00D611D231F849F600D211DAF
:10199000822F762F6A2F11249F5750409AF0F1F032
:1019A00088234AF0EE0FFF1FBB1F661F771F881F9B
:1019B00091505040A9F79E3F510580F00C94F50CD2
:1019C0000C94400D5F3FE4F3983ED4F386957795F1
:1019D0006795B795F795E7959F5FC1F7FE2B880F41
:1019E000911D9695879597F9089597F99F6780E8D7
:1019F00070E060E008959FEF80EC089500240A9461
:101A00001616170618060906089500240A941216D9
:101A10001306140605060895092E0394000C11F40C
:101A2000882352F0BB0F40F4BF2B11F460FF04C0B9
:101A30006F5F7F4F8F4F9F4F089557FD9058440F12
:101A4000551F59F05F3F71F04795880F97FB991F1D
:101A500061F09F3F79F087950895121613061406DA
:101A6000551FF2CF4695F1DF08C016161706180667
:101A7000991FF1CF86957105610508940895E89442
:101A8000BB2766277727CB0197F90895F999FECFF1
:101A900092BD81BDF89A992780B50895262FF999AE
:101AA000FECF1FBA92BD81BD20BD0FB6F894FA9A41
:101AB000F99A0FBE019608952F923F924F925F922E
:101AC0006F927F928F929F92AF92BF92CF92DF924E
:101AD000EF92FF920F931F93CF93DF93CDB7DEB7B3
:101AE000CA1BDB0B0FB6F894DEBF0FBECDBF099447
:101AF0002A88398848885F846E847D848C849B849E
:101B0000AA84B984C884DF80EE80FD800C811B81AB
:101B1000AA81B981CE0FD11D0FB6F894DEBF0FBEDA
:101B2000CDBFED0108955058BB27AA270E94AB0DE9
:101B30000C940C0D0E94FE0C38F00E94050D20F054
:101B400039F49F3F19F426F40C94FB0C0EF4E09545
:101B5000E7FB0C94F50CE92F0E941D0D58F3BA1702
:101B6000620773078407950720F079F4A6F50C94B3
:101B70003F0D0EF4E0950B2EBA2FA02D0B01B901ED
:101B800090010C01CA01A0011124FF27591B99F0F3
:101B9000593F50F4503E68F11A16F040A22F232FFF
:101BA000342F4427585FF3CF469537952795A7954F
:101BB000F0405395C9F77EF41F16BA0B620B730BF6
:101BC000840BBAF09150A1F0FF0FBB1F661F771F67
:101BD000881FC2F70EC0BA0F621F731F841F48F41C
:101BE000879577956795B795F7959E3F08F0B0CFA5
:101BF0009395880F08F09927EE0F9795879508958C
:101C00000E94250D88F09F5798F0B92F9927B7515A
:101C1000B0F0E1F0660F771F881F991F1AF0BA9590
:101C2000C9F714C0B13091F00E943F0DB1E00895A2
:101C30000C943F0D672F782F8827B85F39F0B93F94
:101C4000CCF3869577956795B395D9F73EF4909543
:101C50008095709561957F4F8F4F9F4F08950E949B
:101C6000640C08F48FEF08950E94640C880B990BA4
:101C70000895A1E21A2EAA1BBB1BFD010DC0AA1FCD
:101C8000BB1FEE1FFF1FA217B307E407F50720F0E5
:101C9000A21BB30BE40BF50B661F771F881F991F60
:101CA0001A9469F760957095809590959B01AC01A9
:101CB000BD01CF010895EE0FFF1F0590F491E02DB7
:101CC00009940F931F93CF93DF938230910510F403
:101CD00082E090E0E0913003F091310320E030E0C9
:101CE000A0E0B0E0309719F1408151810281138169
:101CF00048175907C8F08417950769F4109731F011
:101D000012960C93129713961C9327C000933003DE
:101D10001093310322C02115310519F042175307E2
:101D200018F49A01BD01EF01DF01F801DBCF2115A5
:101D30003105F9F0281B390B2430310580F48A81F4
:101D40009B816115710521F0FB019383828304C09F
:101D50009093310380933003FE01329644C0FE011C
:101D6000E20FF31F81939193225031093983288325
:101D70003AC020912E0330912F03232B41F4209160
:101D80000C0130910D0130932F0320932E032091ED
:101D90000A0130910B012115310541F42DB73EB7F1
:101DA00040910E0150910F01241B350BE0912E0341
:101DB000F0912F03E217F307A0F42E1B3F0B281717
:101DC000390778F0AC014E5F5F4F2417350748F0B4
:101DD0004E0F5F1F50932F0340932E0381939193D7
:101DE00002C0E0E0F0E0CF01DF91CF911F910F91B1
:101DF0000895CF93DF93009709F481C0FC013297D7
:101E000013821282A0913003B0913103109781F4B4
:101E100020813181820F931F20912E0330912F0357
:101E20002817390751F5F0932F03E0932E0367C06D
:101E3000ED0120E030E0CE17DF0740F44A815B81FE
:101E40009E0141155105F1F0EA01F5CFD383C2831C
:101E500040815181840F951FC817D90759F4888193
:101E60009981840F951F0296918380838A819B813B
:101E7000938382832115310529F4F0933103E09394
:101E800030033DC0E901FB83EA8349915991C40FB6
:101E9000D51FEC17FD0761F480819181840F951F98
:101EA0000296E90199838883828193819B838A8347
:101EB000E0E0F0E012968D919C911397009719F055
:101EC000FD01DC01F7CF8D919C9111979D012E5F53
:101ED0003F4F820F931F20912E0330912F0328171D
:101EE000390769F4309729F41092310310923003C6
:101EF00002C013821282B0932F03A0932E03DF91AE
:101F0000CF910895A0E0B0E0E8E8FFE00C94600D08
:101F1000EC01009721F4CB010E94610EB4C0FC01DA
:101F2000E60FF71F9C0122503109E217F30708F46E
:101F3000A8C0D9010D911C91119706171707B0F091
:101F40000530110508F49BC0C80104978617970750
:101F500008F495C002501109061B170B0193119349
:101F60006D937C93CF010E94F90E89C05B01A01A8A
:101F7000B10A4C01800E911EA0913003B091310343
:101F8000612C712CE12CF12C109709F446C08D9135
:101F90009C911197A815B905B1F56C0142E0C40EEA
:101FA000D11CCA14DB0478F14C018A189B08640127
:101FB00042E0C40ED11C1296BC9012971396AC91BD
:101FC000B5E0CB16D10440F0B282A3839182808227
:101FD000D9016D937C9309C00E5F1F4F800F911F35
:101FE000F90191838083EB2DFA2FE114F10431F094
:101FF000D7011396FC93EE93129741C0F0933103EF
:10200000E09330033CC06816790608F43C017D017A
:1020100012960D90BC91A02DB7CF80912E03909178
:102020002F0388169906E1F466167706C8F48091A6
:102030000A0190910B01009741F48DB79EB7409132
:102040000E0150910F01841B950BE817F907C8F496
:10205000F0932F03E0932E03F901718360830FC087
:10206000CB010E94610E7C01009759F0A801BE01CE
:102070000E944D10CE010E94F90EC70104C0CE018E
:1020800002C080E090E0CDB7DEB7EEE00C947C0DAE
:1020900081E090E0F8940C945D10FB01DC0102C03B
:1020A00001900D9241505040D8F70895FB01DC019A
:0E20B00001900D920020E1F70895F894FFCF03
:1020BE0000040E1F1F1F0E000400000032038000DC
:1020CE000000400014005400000000004906C00546
:1020DE00EA0596061B06F9050D0600000000FB0139
:1020EE00CE012B02700194018001710100000000ED
:1020FE005A05C0052B022A0200004E617069656305
:10210E0069653A20202020202056004F6C656A3ADF
:10211E0000437A6173206F747761726369613A006C
:10212E00526573657420627574746F6E207072657B
:10213E0073736564000D0A004D656E753A006E612D
:0C214E006E00696E66006F76660020006F
:00000001FF
